:020000040000FA
:020000000528D1
:040002000034003492
:080008001528C0202A30442114
:10001000F0200830F4203630442183168617061766
:10002000831288308B00630013289620861F1B20C4
:10003000061F22200900FC203F304421F0204D30D3
:1000400044210800FC205C304421F0206930442128
:1000500008008207503472346534733469346F3465
:100060006E346134203475346E3400345034753459
:100070006C347334613464346F347234003420343B
:1000800020342034533455345334433452344934B7
:100090004234453454344534003420342034203440
:1000A000573445344C345334203454344834453474
:1000B0004F34523459340034203420342034453401
:1000C0005534523445344B344134213421342134B5
:1000D0000034203420342034463455344E344334F4
:1000E00049344F344E344134213421343D34443486
:1000F00000340000000000000000000000000800C4
:100100000000A4308C28000040308C281F308C2840
:1001100000000E308C2805308C008C0B8D280800D8
:10012000C8309F2864309F2832309F2814309F2881
:100130000A309F2805309F2802309F2801308D000B
:10014000F9308C0000008C0BA2288D0BA028080031
:10015000C830B3286430B3283230B3281430B32801
:100160000A30B32805308E0064308D00F9308C00E1
:1001700000008C0BB8288D0BB6288E0BB428080015
:1001800083160510051185108312851005110510C1
:1001900096203030D8209A203030D820832030303C
:1001A000D8202030D820FE20FC20FA20EC200800A7
:1001B000F0398F0006080F398F0483160608910066
:1001C0000F30860583120F0886000515051183166A
:1001D00011088600831208000630FF288030FF28AF
:1001E000C030FF288038FF28C038FF280830FF289B
:1001F0000E30FF280C30FF280130FF282830051072
:10020000032905140B219000D820100ED820051CBE
:100210009C20882008008F00F13C031D1229EE303D
:100220008F001F290F08D13C031D1929EE308F00C4
:100230001F290F08BA3C031D1F29DF308F000F084C
:1002400008001030282901302829023028290330DD
:10025000920020300121920B292908009300F039E7
:10026000031D36292030012138299300130E39212E
:1002700013080F399200093C031C41291208303E33
:1002800043291208373E012994002930940294032F
:100290001408292095009508031951290121940A71
:1002A0004829080094002930940294039601FC2008
:1002B00010301602031D6129902090200F30940207
:1002C0005629140829209500950803196B29012146
:0802D000960A940A582908005F
:02400E00F13F80
:00000001FF
