:020000040000FA
:020000000528D1
:040002000034003492
:08000800112862208316061482
:100010008113011383128C01152090308B00630033
:100020000F283820061819288C0A90200C08E62082
:10003000D0208B100900000000000000000000002C
:10004000000008000000A4302E28000040302E28B8
:100050001F302E2800000E302E2805308D008D0B0D
:100060002F280800C8304128643041283230412808
:10007000143041280A3041280530412802304128F7
:1000800001308E00F9308D0000008D0B44288E0B5E
:1000900042280800C8305528643055283230552889
:1000A000143055280A30552805308F0064308E00F2
:1000B000F9308D0000008D0B5A288E0B58288F0BBD
:1000C0005628080083160510051185108312851027
:1000D00005110510382030307A203C2030307A204D
:1000E000252030307A2020307A20A0209E209C20AD
:1000F0008E200800F039900006080F39900483160E
:10010000060892000F308605831210088600051538
:100110000511831612088600831208000630A128F4
:100120008030A128C030A1288038A128C038A1285B
:100130000830A1280E30A1280C30A1280130A128B8
:1001400028300510A5280514AD2091007A20110E45
:100150007A20051C3E202A2008009000F13C031D57
:10016000B428EE309000C1281008D13C031DBB28F4
:10017000EE309000C1281008BA3C031DC128DF30C2
:100180009000100808001030CA280130CA28023038
:10019000CA28033093002030A320930BCB280800FB
:1001A0009400F039031DD8282030A320DA289400C9
:1001B000140EDB2014080F399300093C031CE328BC
:1001C0001308303EE5281308373EA3289501960111
:1001D00097000A301702031CF6289700960A0A3087
:1001E0001602031CE9289601950AE928160E17073E
:0201F000080005
:02400E00F13F80
:00000001FF
