:020000040000FA
:100000008220030106218C0004300C0203181328FF
:100010000C080F391720C3201E3023218C0A0C082E
:100020000F21630011282930232163001328820740
:100030003034313432343334003482072034523493
:1000400045345334453454344534413444344F34C6
:1000500000344534533454344F345934203442340A
:100060004C344F34513455344534413444344F3496
:1000700021342134003400000000000000000000A2
:10008000000008000000A4304E28000040304E2838
:100090001F304E2800000E304E2805308D008D0B8D
:1000A0004F280800C8306128643061283230612848
:1000B000143061280A306128053061280230612837
:1000C00001308E00F9308D0000008D0B64288E0BFE
:1000D00062280800C83075286430752832307528C9
:1000E000143075280A30752805308F0064308E0072
:1000F000F9308D0000008D0B7A288E0B78288F0B3D
:1001000076280800831605100511851083128510C6
:1001100005110510582030309A205C2030309A208C
:10012000452030309A2020309A20C020BE20BC20AC
:10013000AE200800F039900006080F3990048316AD
:10014000060892000F3086058312100886000515F8
:100150000511831612088600831208000630C12894
:100160008030C128C030C1288038C128C038C1289B
:100170000830C1280E30C1280C30C1280130C128F8
:1001800028300510C5280514CD2091009A20110EA5
:100190009A20051C5E204A2008009000F13C031DB7
:1001A000D428EE309000E1281008D13C031DDB2854
:1001B000EE309000E1281008BA3C031DE128DF3042
:1001C0009000100808001030EA280130EA280230B8
:1001D000EA28033093002030C320930BEB2808005B
:1001E0009400F039031DF8282030C320FA28940029
:1001F000140EFB2014080F399300093C031C03293B
:100200001308303E05291308373EC328831289009E
:100210008316081408180A29831208080800831294
:1002200088000B08950083168B130815553089003C
:10023000AA308900881488181B2908110812831213
:1002400015088B00080096001D30960296031608CC
:100250001D209700970803193029C320960A2729E3
:10026000080096001D30960296039801BE201030BB
:100270001802031D4029522052200F3096023529C2
:1002800016081D209700970803194A29C320980AC9
:06029000960A3729080060
:0402960000340034FC
:02400E00F13F80
:024200000000BC
:00000001FF
