:020000040000FA
:100000008316860183120030860037200130860077
:100010003720023086003720043086003720083031
:1000200086003720103086003720203086003720A9
:1000300040308600372080308600372040308600F0
:1000400037202030860037201030860037200830D7
:1000500086003720043086003720023086003720A3
:100060000130860037200030860037200328FF301B
:100070000C088C0B3C280800FF300D088D0B3E2827
:0200800039281D
:040082000034003412
:02400E00F13F80
:00000001FF
