:020000040000FA
:100000007020831638308100831281019E200230D7
:10001000A22015300721A0200330A4202130072181
:100020000108F420DE200628820743346F346E3442
:100030007434613464346F3472342034643465341D
:100040000034503475346C3473346F3473343A3450
:100050000034000000000000000000000000080064
:100060000000A4303C28000040303C281F303C28D1
:1000700000000E303C2805308C008C0B3D28080019
:10008000C8304F2864304F2832304F2814304F2862
:100090000A304F2805304F2802304F2801308D009C
:1000A000F9308C0000008C0B52288D0B5028080072
:1000B000C8306328643063283230632814306328E2
:1000C0000A30632805308E0064308D00F9308C00D2
:1000D00000008C0B68288D0B66288E0B64280800A6
:1000E0008316051005118510831285100511051062
:1000F0004620303088204A2030308820332030306D
:10010000882020308820AE20AC20AA209C20080027
:10011000F0398F0006080F398F0483160608910006
:100120000F30860583120F0886000515051183160A
:1001300011088600831208000630AF288030AF28EF
:10014000C030AF288038AF28C038AF280830AF287B
:100150000E30AF280C30AF280130AF282830051002
:10016000B3280514BB2090008820100E8820051CA1
:100170004C20382008008F00F13C031DC228EE30CF
:100180008F00CF280F08D13C031DC928EE308F0007
:10019000CF280F08BA3C031DCF28DF308F000F088F
:1001A00008001030D8280130D8280230D828033071
:1001B00092002030B120920BD92808009300F0392A
:1001C000031DE6282030B120E8289300130EE92013
:1001D00013080F399200093C031CF1281208303E25
:1001E000F3281208373EB1289401950196000A3091
:1001F0001602031C04299600950A0A301502031CF6
:10020000F7289501940AF728150E1607080097009D
:1002100014309702970317081420980098080319C0
:100220001429B120970A0B2908009700143097026F
:1002300097039901AC2010301902031D2429402096
:1002400040200F30970219291708142098009808A9
:0E02500003192E29B120990A970A1B290800CC
:02025E0000346A
:02026000003468
:02400E00F13F80
:00000001FF
