:020000040000FA
:100000009620031E102821301A21831605160F3062
:10001000810083128C0118207120051E13200D28E9
:100020002D301A21630064005920051A1F288C0AFC
:10003000C4200C08832004216400051E1C2808002D
:10004000820720342034203420344334753465341E
:100050006E3474346134203400344D347534793462
:1000600020346C3465346E3474346F342034653429
:100070007234653473340034000000000000000066
:100080000000000008000000A4304F2800004030AD
:100090004F281F304F2800000E304F2805308D00AC
:1000A0008D0B50280800C830622864306228323036
:1000B0006228143062280A30622805306228023033
:1000C000622801308E00F9308D0000008D0B65280C
:1000D0008E0B63280800C8307628643076283230CA
:1000E0007628143076280A30762805308F00643060
:1000F0008E00F9308D0000008D0B7B288E0B792847
:100100008F0B772808009001910192000A301202AB
:10011000031C93289200910A0A301102031C8628BE
:100120009101900A8628110E120708008316051007
:1001300005118510831285100511051059203030E6
:10014000AE205D203030AE2046203030AE20203052
:10015000AE20D420D220D020C2200800F039930055
:1001600006080F3993048316060895000F3086059C
:1001700083121308860005150511831615088600DD
:10018000831208000630D5288030D528C030D52805
:100190008038D528C038D5280830D5280E30D52845
:1001A0000C30D5280130D52828300510D928051461
:1001B000E1209400AE20140EAE20051C5F204B20E1
:1001C00008009300F13C031DE828EE309300F52869
:1001D0001308D13C031DEF28EE309300F5281308D7
:1001E000BA3C031DF528DF309300130808001030D7
:1001F000FE280130FE280230FE2803309600203011
:10020000D720960BFF2808009700F039031D0C2912
:100210002030D7200E299700170E0F2117080F390D
:100220009600093C031C17291608303E19291608A8
:10023000373ED728980020309802980318082020CD
:100240009900990803192729D720980A1E29080020
:1002500098002030980298039A01D22010301A0298
:10026000031D3729532053200F3098022C291808DA
:1002700020209900990803194129D7209A0A980A41
:040280002E2908001B
:04028400003400340E
:02400E00F53F7C
:00000001FF
