:020000040000FA
:1000000079200130AB205730BA204530BA204C302F
:10001000BA205330BA20DC205430BA204830BA20FD
:100020004530BA204F30BA205230BA205930BA2069
:100030000130AD205330BA205530BA205330BA20A9
:100040004330BA205230BA204930BA204230BA2068
:100050004530BA205430BA204530BA206720B52048
:1000600069200128000000000000000000000000DE
:1000700008000000A43045280000403045281F300B
:10008000452800000E30452805308C008C0B462892
:100090000800C830582864305828323058281430A6
:1000A00058280A305828053058280230582801307E
:1000B0008D00F9308C0000008C0B5B288D0B5928CB
:1000C0000800C8306C2864306C2832306C2814303A
:1000D0006C280A306C2805308E0064308D00F930B1
:1000E0008C0000008C0B71288D0B6F288E0B6D28F7
:1000F000080083160510051185108312851005115F
:1001000005104F20303091205320303091203C207A
:100110003030912020309120B720B520B320A52089
:100120000800F0398F0006080F398F04831606087F
:1001300091000F30860583120F0886000515051102
:10014000831611088600831208000630B828803014
:10015000B828C030B8288038B828C038B828083047
:10016000B8280E30B8280C30B8280130B82828300C
:100170000510BC280514C42090009120100E912079
:10018000051C5520412008008F00F13C031DCB28A1
:10019000EE308F00D8280F08D13C031DD228EE3056
:1001A0008F00D8280F08BA3C031DD828DF308F00F5
:1001B0000F0808001030E1280130E1280230E12862
:1001C000033092002030BA20920BE22808009300FE
:1001D000F039031DEF282030BA20F1289300130EC8
:1001E000F22013080F399200093C031CFA28120868
:0A01F000303EFC281208373EBA2802
:0401FA000034003499
:02400E00F13F80
:00000001FF
