:020000040000FA
:100000008316851505168312F4202E213021E62053
:1000100044303521453035215330352141303521AB
:100020004330352154303521493035215630352182
:1000300041303521CC20073028214C30352141304A
:1000400035215721423035214F3035214D30352172
:100050004230352141303521E420302149303521ED
:100060004E3035214730352152303521453035214C
:100070005330352141303521CC2004302821433004
:1000800035214F3035214D30352142303521493031
:1000900035214E303521413035214330352149302D
:1000A00035214F3035214E303521E420CA208519C5
:1000B0005D28051A6F2860280628051A97288228C7
:1000C0003021423035214F3035214F3035214D30F0
:1000D00035212130352121303521C42056283021C9
:1000E00042303521593035214530352142303521D6
:1000F00059303521453035213A30352129303521E7
:10010000C42056283021433035214F30352152301C
:100110003521523035214530352143303521543099
:1001200035214F30352121303521C420562830214A
:1001300046303521413035214C3035215430352180
:10014000413035214E305721352131303521303085
:10015000352153303521C42056280000000000000E
:1001600000000000000008000000A430C0280000CB
:100170004030C0281F30C02800000E30C028053095
:100180008C008C0BC1280800C830D3286430D328D9
:100190003230D3281430D3280A30D3280530D3285E
:1001A0000230D32801308D00F9308C0000008C0B18
:1001B000D6288D0BD4280800C830E7286430E728FB
:1001C0003230E7281430E7280A30E72805308E005F
:1001D00064308D00F9308C0000008C0BEC288D0B06
:1001E000EA288E0BE82808008316051005118510F3
:1001F0008312851005110510CA2030300C21CE2045
:1002000030300C21B72030300C2120300C2132212D
:1002100030212E2120210800F0398F0006080F39E7
:100220008F048316060891000F30860583120F088D
:100230008600051505118316110886008312080033
:100240000630332980303329C030332980383329B0
:10025000C0383329083033290E3033290C30332984
:100260000130332928300510372905143F2190002B
:100270000C21100E0C21051CD020BC2008008F0082
:10028000F13C031D4629EE308F0053290F08D13C65
:10029000031D4D29EE308F0053290F08BA3C031D72
:1002A0005329DF308F000F08080010305C2901301F
:1002B0005C2902305C290330920020303521920BFA
:1002C0005D2908009300F039031D6A29203035218B
:1002D0006C299300130E6D2113080F399200093C0D
:1002E000031C75291208303E77291208373E35293C
:0402F00000340034A2
:02400E00F13F80
:00000001FF
