:020000040000FA
:020000000528D1
:040002000034003492
:080008001D28C8208316851194
:10001000051600308100831285118C018515812021
:100020008511051E1128E3308100A0308B00051AD0
:1000300017288B012620B6200D28E33081000130DF
:100040008C07903003188C000B110900042102303A
:100050000C02031C33280C08903C031837289030FE
:100060008C007130382802308C00613038284C30D8
:100070004C210530FC200C0874211808031D44286D
:100080000C0874213621482841210C0874213D2197
:100090005D304C21080082074C34613420346434D4
:1000A00069347334743461346E3463346934613464
:1000B0002034653473343A340034203463346D347E
:1000C000003452342D346D3469346E34203473343A
:1000D0007534703465347234613464346F343A3456
:1000E000003452342D346D34613478342034733418
:1000F0007534703465347234613464346F343A3436
:1001000000340000000000000000000000000800B3
:100110000000A43094280000403094281F30942818
:1001200000000E30942805308D008D0B95280800B6
:10013000C830A7286430A7283230A7281430A72851
:100140000A30A7280530A7280230A72801308E00E2
:10015000F9308D0000008D0BAA288E0BA82808000E
:10016000C830BB286430BB283230BB281430BB28D1
:100170000A30BB2805308F0064308E00F9308D00C6
:1001800000008D0BC0288E0BBE288F0BBC280800EA
:1001900083160510051185108312851005110510B1
:1001A0009E203030E020A2203030E0208B20303004
:1001B000E0202030E020062104210221F420080064
:1001C000F039900006080F39900483160608920053
:1001D0000F30860583121008860005150511831659
:1001E000120886008312080006300729803007298C
:1001F000C030072980380729C03807290830072967
:100200000E3007290C300729013007292830051046
:100210000B29051413219100E020110EE020051C8C
:10022000A4209020080090003F3C031D1A29EE30C6
:100230009000272910083F3C031D2129EE30900033
:10024000272910083F3C031D2729DF3090001008A4
:1002500008001030302901303029023030290330B5
:10026000930020300921930B312908009400F039C4
:10027000031D3E292030092140299400140E4121FC
:1002800014080F399300093C031C49291308303E18
:100290004B291308373E092995004B3095029503E9
:1002A00015084B2096009608031959290921950A2B
:1002B0005029080095004B309502950397010421C1
:1002C00010301702031D6929982098200F309502DD
:1002D0005E2915084B2096009608031973290921F9
:1002E000970A950A60290800980199019A000A3036
:1002F0001A02031C84299A00990A0A301902031C65
:0E03000077299901980A7729190E1A07080023
:02400E00F13F80
:00000001FF
