:020000040000FA
:020000000528D1
:040002000034003492
:080008001D28B2208316061426
:1000100086108113011383128C0190308B00E02035
:100020005A300C1848304921E2203A3049218220C8
:10003000E2200C18132182200F288D00030E8E0061
:10004000831211088F0012089000882006182F28AC
:100050008C0986182D2886142F2886102F280E0E1E
:1000600083008D0E0D0E0F089100100892008B106A
:100070000900820720342034573465346C347334DB
:1000800020345434683465346F3472347934003435
:1000900020345334753473346334723469346234C5
:1000A0006534743465342134213420343D3444348F
:1000B0002034003420345434753474346F34723442
:1000C000693461346C34203431343234203449346E
:1000D0004E345434003400000000000000000000E2
:1000E000000008000000A4307E28000040307E2878
:1000F0001F307E2800000E307E2805309100910BC5
:100100007F280800C8309128643091283230912827
:10011000143091280A309128053091280230912816
:1001200001309200F93091000000910B9428920B5D
:1001300092280800C830A5286430A5283230A528A8
:100140001430A5280A30A5280530930064309200A9
:10015000F93091000000910BAA28920BA828930B6C
:10016000A628080083160510051185108312851036
:100170000511051088203030CA208C203030CA206C
:1001800075203030CA202030CA20F020EE20EC202C
:10019000DE200800F039940006080F399404831615
:1001A000060896000F308605831214088600051590
:1001B0000511831616088600831208000630F12800
:1001C0008030F128C030F1288038F128C038F1287B
:1001D0000830F1280E30F1280C30F1280130F128D8
:1001E00028300510F5280514FD209500CA20150EAD
:1001F000CA20051C8E207A2008009400F13C031DC3
:100200000429EE30940011291408D13C031D0B2958
:10021000EE30940011291408BA3C031D1129DF3077
:1002200094001408080010301A2901301A290230ED
:100230001A29033097002030F320970B1B29080060
:100240009800F039031D28292030F3202A2998002E
:10025000180E2B2118080F399700093C031C33296D
:100260001708303E35291708373EF32899019A01BF
:100270009B000A301B02031C46299B009A0A0A3085
:100280001A02031C39299A01990A39291A0E1B07E7
:1002900008009C0039309C029C031C0839209D00FA
:1002A0009D0803195629F3209C0A4D2908009C003B
:1002B00039309C029C039E01EE2010301E02031D6B
:1002C0006629822082200F309C025B291C0839207D
:1002D0009D009D0803197029F3209E0A9C0A5D2940
:0202E000080014
:02400E00F13F80
:00000001FF
