:020000040000FA
:1000000083168601051683121120051A0C287A2002
:10001000051A0C280D20742005288C0A0A300C02C1
:1000200003188C010C081620860008000F39303E9A
:100030008D00203C031900340D08D13C03195534C0
:100040000D08BA3C031963340D085A3C031C803474
:100050002B300D02031C80348207463404344034B4
:10006000803400343F3406345B344F3466346D34AE
:100070007D3407347F346734413488340034483465
:1000800000340034003477347C3439345E347934CD
:1000900071346F34763419341E347A34383437344A
:1000A00054343F347334673450346D3478341C34F2
:1000B0003E341D3470346E344934000000000000BA
:1000C00000000000000008000000A43070280000BC
:1000D000403070281F30702800000E307028053026
:1000E0008E008E0B71280800C83083286430832866
:1000F00032308328143083280A308328053083283F
:100100000230832801308F00F9308E0000008E0B02
:1001100086288F0B84280800C830972864309728D9
:1001200032309728143097280A30972805309000ED
:1001300064308F00F9308E0000008E0B9C288F0BEE
:080140009A28900B9828080092
:04014800003400344B
:02400E00F13F80
:00000001FF
